ABN-AMRO multirekening
000000000117301523AAAAAAAAAAAAA12004020002Biere en Co             De Trompet 5abc             1967 DD HEEMSKERK                                                                                                                                                                                                                                                                                                                                        
000000000117301523EUR00000000012890BGC000000000000000000                         0000000012500D200402200402000400001                000000000000000000000          GAS & LICHT                                                                                                                                                                                                                                                                                    
000000000117301523EUR00000000012890BGC000000000000000000                         0000000005000D200402200402000400002                000000000000000000000          BENZINE                                                                                                                                                                                                                                                                                        
000000000117301523EUR00000000012890BGC000000000000000000                         0000000002500D200402200402000400003                000000000000000000000          BAKKER                                                                                                                                                                                                                                                                                         
000000000117301523EUR999999999970002004020000000100000C2004020000000080000C2004020011                                                                                                                                                                                                                                                                                                                                                                             
00000000011730152399999999999998000000003000000000000000020000000000000000000000000000000000                                                                                                                                                                                                                                                                                                                                                                      
